{
  "contractName": "Migrations",
  "abi": [
    {
      "inputs": [],
      "stateMutability": "nonpayable",
      "type": "constructor"
    },
    {
      "inputs": [],
      "name": "lastCompletedMigration",
      "outputs": [
        {
          "internalType": "uint256",
          "name": "",
          "type": "uint256"
        }
      ],
      "stateMutability": "view",
      "type": "function"
    },
    {
      "inputs": [],
      "name": "owner",
      "outputs": [
        {
          "internalType": "address",
          "name": "",
          "type": "address"
        }
      ],
      "stateMutability": "view",
      "type": "function"
    },
    {
      "inputs": [
        {
          "internalType": "uint256",
          "name": "completed",
          "type": "uint256"
        }
      ],
      "name": "setCompleted",
      "outputs": [],
      "stateMutability": "nonpayable",
      "type": "function"
    },
    {
      "inputs": [
        {
          "internalType": "address",
          "name": "new_address",
          "type": "address"
        }
      ],
      "name": "upgrade",
      "outputs": [],
      "stateMutability": "nonpayable",
      "type": "function"
    }
  ],
  "bytecode": "0x608060405234801561001057600080fd5b50600080546001600160a01b03191633179055610301806100326000396000f3fe608060405234801561001057600080fd5b506004361061004c5760003560e01c80630900f010146100515780638da5cb5b14610066578063fbdbad3c146100b0578063fdacd576146100c7575b600080fd5b61006461005f366004610275565b6100da565b005b6000546100869073ffffffffffffffffffffffffffffffffffffffff1681565b60405173ffffffffffffffffffffffffffffffffffffffff90911681526020015b60405180910390f35b6100b960015481565b6040519081526020016100a7565b6100646100d53660046102b2565b6101ef565b60005473ffffffffffffffffffffffffffffffffffffffff163314610160576040517f08c379a000000000000000000000000000000000000000000000000000000000815260206004820152601c60248201527f5265737472696374656420746f20636f6e7472616374206f776e65720000000060448201526064015b60405180910390fd5b6001546040517ffdacd576000000000000000000000000000000000000000000000000000000008152829173ffffffffffffffffffffffffffffffffffffffff83169163fdacd576916101b99160040190815260200190565b600060405180830381600087803b1580156101d357600080fd5b505af11580156101e7573d6000803e3d6000fd5b505050505050565b60005473ffffffffffffffffffffffffffffffffffffffff163314610270576040517f08c379a000000000000000000000000000000000000000000000000000000000815260206004820152601c60248201527f5265737472696374656420746f20636f6e7472616374206f776e6572000000006044820152606401610157565b600155565b60006020828403121561028757600080fd5b813573ffffffffffffffffffffffffffffffffffffffff811681146102ab57600080fd5b9392505050565b6000602082840312156102c457600080fd5b503591905056fea2646970667358221220e4ac27ef38f2e2344c860b6294d1cfd1bf66f3623c78102b27be97c92f0bb5dd64736f6c63430008140033",
  "immutableReferences": {},
  "source": "// SPDX-License-Identifier: MIT\r\npragma solidity >=0.4.22 <0.9.0;\r\ncontract Migrations {\r\n    address public owner;\r\n    uint256 public lastCompletedMigration;\r\n\r\n    constructor() {\r\n        owner = msg.sender;\r\n    }\r\n\r\n    modifier restricted() {\r\n        require(msg.sender == owner, \"Restricted to contract owner\");\r\n        _;\r\n    }\r\n\r\n    function setCompleted(uint256 completed) public restricted {\r\n        lastCompletedMigration = completed;\r\n    }\r\n\r\n    function upgrade(address new_address) public restricted {\r\n        Migrations upgraded = Migrations(new_address);\r\n        upgraded.setCompleted(lastCompletedMigration);\r\n    }\r\n}",
  "sourcePath": "C:\\Users\\MSI\\Desktop\\Projects\\GreenAi\\contracts\\Migrations.sol",
  "compiler": {
    "name": "solc",
    "version": "0.8.20+commit.a1b79de6.Emscripten.clang"
  },
  "schemaVersion": "3.4.16",
  "updatedAt": "2024-06-22T04:40:51.412Z",
  "networkType": "ethereum",
  "devdoc": {
    "kind": "dev",
    "methods": {},
    "version": 1
  },
  "userdoc": {
    "kind": "user",
    "methods": {},
    "version": 1
  }
}